S011000050312D53657269616C2E7372656305
S113000033C0000041C000003FC000003DC00000FC
S11300103BC0000039C0000037C0000035C00000FC
S113002033C0000031C000002FC0000032C0000007
S11300302BC0000029C0000027C0000025C000001C
S113004023C0000021C000001FC000001DC000002C
S11300501BC0000019C0000017C0000015C000003C
S113006013C0000011C0000011241FBECFEFD8E060
S1130070DEBFCDBF21E0A0E0B1E001C01D92A230FF
S1130080B207E1F75BD06CC0BBCF80E28BB98AB911
S113009008951F920F920FB60F9211248F939F937E
S11300A0EF93FF93E8E8F0E0808191810D969183CE
S11300B0808380910101815080930101809101012D
S11300C08B3088F480910101813069F080910001C6
S11300D080FD02C080E001C080E28BB98091000104
S11300E086958093000180910101813011F480E2B2
S11300F08BB980910101811102C010926F00A89503
S1130100FF91EF919F918F910F900FBE0F901F90D1
S113011018959AE090930101209184003091850014
S1130120235F3F4F30938900209388001BB880934E
S11301300001A89582E080936F000895A6DF8BE00C
S113014080938100789485E4E4DF82E7E2DF8CE445
S1130150E0DF8FE6DEDF8AE0DCDF8DE0DADFF3CF9D
S1070160F894FFCF3D
S9030000FC
