:1000000033C0000041C000003FC000003DC0000000
:100010003BC0000039C0000037C0000035C0000000
:1000200033C0000031C000002FC000002DC0000010
:1000300030C0000029C0000027C0000025C000001B
:1000400023C0000021C000001FC000001DC0000030
:100050001BC0000019C0000017C0000015C0000040
:1000600013C0000011C0000011241FBECFEFD8E064
:10007000DEBFCDBF21E0A0E0B1E001C01D92A23003
:10008000B207E1F75AD064C0BBCF80E28BB98AB91E
:1000900008951F920F920FB60F9211248F939F9382
:1000A000EF93FF93EAE8F0E0808191810D969183D0
:1000B0008083809101018150809301018091010131
:1000C0008B3088F480910101813069F080910001CA
:1000D00080FD02C080E001C080E28BB98091000108
:1000E00086958093000180910101813011F480E2B6
:1000F0008BB980910101811102C010926F00A89507
:10010000FF91EF919F918F910F900FBE0F901F90D5
:1001100018952091840030918500235F3F4F3093E4
:100120008B0020938A001BB89AE090930101809382
:10013000000184E080936F000895A7DF8BE0809337
:10014000810078948AE4E5DF8AE4E3DFA895FECFB6
:04015000F894FFCF51
:00000001FF
