S011000050312D53657269616C2E7372656305
S113000033C0000039C0000037C0000035C0000014
S113001033C0000031C000002FC000002DC000001C
S11300202BC0000029C0000027C0000025C000002C
S113003023C0000021C000001FC000001DC000003C
S11300401BC0000019C0000017C0000015C000004C
S113005013C0000011C000000FC000000DC000005C
S11300600BC0000009C0000011241FBECFEFD8E070
S1130070DEBFCDBF77D085C0C3CF80E28BB98AB94C
S11300800895CF93DF9300D000D0CDB7DEB798E0CA
S113009099831B821A821C822091840030918500EE
S11300A0235F3F4F3B832A831BB8E4E8F0E061E021
S11300B070E0A895408151812A813B81962F421797
S11300C0530708F4972F9C839C81992391F31C82F6
S11300D0A0E0E4E8F0E061E07A2F2A813B81235F2D
S11300E03F4F3B832A8380FD02C09A2F01C090E2D8
S11300F09BB98695AC83A895408151812A813B8127
S1130100962F4217530708F4972F9C839C819923B9
S113011091F39981915099839111DFCF80E28BB94A
S11301208A819B810D969B838A83E4E8F0E091E0C9
S113013060E0A895408151812A813B81892F421733
S1130140530708F4862F8C838C81882391F31092B3
S11301508500109284000F900F900F900F90DF9104
S1130160CF9108958ADF83E08093810080E589DF61
S113017085E287DF81E485DF8AE083DF8DE081DF4C
S1090180F5CFF894FFCF57
S9030000FC
